:0400000080312E28F5
:100008007E1480310B1F09280A282C282100111E74
:100018000E280F281B282000111E132814281B281F
:10002800210045088A0044080A0080312C28210054
:10003800911E1F2820282C282000911E24282528BE
:100048002C28210043088A0042080A0080312C2805
:100058007E10090080313028FC01693084000030AE
:1000680085000730853112258031A03084000030AA
:10007800850046308531122580317E10200082317E
:10008800A82A2000BB0021003B08803A2000B800C5
:1000980080303802031D5328013021003A0203182A
:1000A800562857285D2801302000BC000030BD00CC
:1000B800652821003B082000BD0021003A082000E7
:1000C800BC00210039082000BA00210038082000AF
:1000D800B9003008BE003108BF003208C00033083C
:1000E800C1003408C2003508C3003608C400370808
:1000F800C5001F30C6000030C7002100E501E22816
:10010800FF302000C607FF30C73D4608C63E8600C0
:1001180087010A30A000A101A201A301A401A50141
:10012800A601A7013E08A8003F08A9004008AA00A8
:100138004108AB004208AC004308AD004408AE00DB
:100148004508AF0082313722803120002008303E38
:100158008100FF30BC07FF30BD3DFF30B907FF30DD
:10016800BA3D0A30A000A101A201A301A401A50182
:10017800A601A7013E08A8003F08A9004008AA0058
:100188004108AB004208AC004308AD004408AE008B
:100198004508AF008131B321803120002008BE001E
:1001A8002108BF002208C0002308C1002408C2009B
:1001B8002508C3002608C4002708C50020004608F3
:1001C80047040319E828E92802293E083F044004A7
:1001D80041044204430444044504031DF428F5285B
:1001E80084283D08803AB80080303802031DFE2874
:1001F80001303C02031801290229842820004608FE
:10020800C63EA7003A08A9003908A8003B08833170
:10021800ED23803108002000D600480886008701B9
:10022800403FCA00413FCB004A0884004B08850084
:100238001200253A031D212922299A2948088600F7
:1002480087010130810741310318810A2100B80173
:10025800B90103100030031801302000E900FF3015
:100268002100BA00FF30BB00200048088600870143
:10027800403FD700413FD800570884005808850000
:100288001200753A031D49294A2990294908860010
:10029800870101088400850102308107003FCE00F4
:1002A800013FCF00D001D101D201D301D401D50142
:1002B8005708013ECA000030583DCB004808860068
:1002C80087014A08C03F4B08C13F7F294E08B0004C
:1002D8004F08B1005008B2005108B3005208B400EA
:1002E8005308B5005408B6005508B70056088031C1
:1002F80045208131B2295708840058088500000834
:10030800CA00CB014B08003A03198B2990294A08E7
:10031800753A03196A299029200048088600870140
:100328000130810741310318810AB2294808860043
:100338008701403FCA00413FCB004A0884004B0870
:1003480085000008CC00CD014C08F4004D08F500EC
:100358005608F6008231FD2281319029080072305A
:100368008600003087000830F10000301E00F10BD5
:10037800BA29200020082104220423042404250487
:10038800260427040319C929CA29262AFA01FA0AC0
:10039800D929A035A10DA20DA30DA40DA50DA60D5B
:1003A800A70D0130F1007108FA07A71FDC29DD2924
:1003B800CD29F235F30DF40DF50DF60DF70DF80D09
:1003C800F90D27082F02031D032A26082E02031DF4
:1003D800032A25082D02031D032A24082C02031DC5
:1003E800032A23082B02031D032A22082A02031DBD
:1003F800032A21082902031D032A20082802031CB6
:10040800062A072A182A2008A8022108A93B220838
:10041800AA3B2308AB3B2408AC3B2508AD3B260888
:10042800AE3B2708AF3B7214A736A60CA50CA40C4C
:10043800A30CA20CA10CA00C0130FA02031D252A62
:10044800262ADD297208A0007308A1007408A200FA
:100458007508A3007608A4007708A5007808A60008
:100468007908A7000800200020082104220423049A
:1004780024042504260427040319432A442A972A16
:10048800F201F20A532AA035A10DA20DA30DA40D65
:10049800A50DA60DA70D0130F1007108F207A71FE1
:1004A800562A572A472A27082F02031D752A260885
:1004B8002E02031D752A25082D02031D752A2408FE
:1004C8002C02031D752A23082B02031D752A2208F6
:1004D8002A02031D752A21082902031D752A2008EE
:1004E8002802031C782A792A892A2008A8022108C8
:1004F800A93B2208AA3B2308AB3B2408AC3B2508B0
:10050800AD3B2608AE3B2708AF3BA736A60CA50C8B
:10051800A40CA30CA20CA10CA00C0130F202031D28
:10052800962A972A572A2808A0002908A1002A08ED
:10053800A2002B08A3002C08A4002D08A5002E0853
:10054800A6002F08A7000800E8302000E7000330C5
:10055800E8008431DD2482318B170B17E830F30073
:100568000330F400853107258231123020006802FB
:10057800C03003196702031CC22AC32AC82A0130E3
:10058800E5000030E600D32A03306802E930031999
:1005980067020318D02AD12AD32AE501E6016508A3
:1005A8006604031DD82AD92ADD2A0130E70700305E
:1005B800E83D65036604031DE22AE32AE72A0130C1
:1005C800E7020030E83B6808F4006708F30085316B
:1005D8000725823142302000E0008530E1006808BC
:1005E800E3006708E2008431ED248231B92A8031C2
:1005F8002E2876080319012B022B072B7608031DDA
:10060800062B072B0C2B74088531182582313D2BBE
:100618007608083E86008701160001040319152B89
:10062800162B342B7608083E86008701403FF700DA
:10063800413FF8007608023E86008701403FF900F6
:10064800413FFA007A08803AFB007808803A7B023A
:10065800031D302B770879020318332B342B3D2BDD
:100668007608023E86008701013081074131031870
:10067800810A080021009112B430F1000330F20021
:10068800853124258331210011126E30F1000430A8
:10069800F20085311E258331083023009F009030F9
:1006A8009D0024309E0044309B009C015630F10090
:1006B8000530F2008531302583314B30F1000530AB
:1006C800F20085312A2583314F30F1000530F200E0
:1006D8008531362583312000EA01EF01EE0108302B
:1006E800ED00FC01EC01EB0121009116080022004D
:1006F8008C018D018E01083021009000FF308C00A4
:10070800F3308D00EF308E000C3023008E00333034
:100718008D003F308C00240090018D018C018030C9
:100728008E002100971325008C018D018E01FF306A
:1007380026008C00FF308D00FF308E003F302700F0
:100748008C00F0308D00FF308E0015303C00BD006D
:100758001F303D009A002430A4001F309B00080081
:100768007C08A03E86008701810123001D1DBD2B4A
:10077800BE2BC92B7C08A03E86008701811421006E
:1007880041088A0040080A00833123009D1CCD2BB4
:10079800CE2BD92B7C08A03E8600870101152100AD
:1007A8003F088A003E080A0083317C08A03E860084
:1007B800870101080319E12BE22BE92B21003D08F1
:1007C8008A003C080A008331EC2B8431C52483312C
:1007D80008002000AF00A91BF22BF32BF82B2908E7
:1007E800AE002808AD00FA2BAD01AE01AB01AC019B
:1007F8000C2C2030F4000030F50020002F08F60003
:100808008231FD22833101302000AB070030AC3D3E
:100818002C08803AAA002E08803A2A02031D162CBA
:100828002D082B02031C192C1A2CFD2B20002F0835
:10083800A000270884314A2483310800F2002000F0
:100848006D080319282C292C232C2100111A2D2C72
:100858002E2C322C720823009A00472C11122000EB
:100868006F08B03E86008701720881000130F100F0
:100878007108EF0708306F02031C432C442C452CE9
:10088800EF010130ED022100111608002000A3003D
:10089800A501A601602C2408A100A2012108F400EA
:1008A8002208F5002008F6008231FD22843101304B
:1008B8002000A5070030A63D25082307A100210830
:1008C800860087010108A4002408031D6C2C6D2CE8
:1008D8004F2C0800083020006D020318742C752C6A
:1008E8008D2C6E08B03E86008701010823009A000F
:1008F8000130F00070082000EE0708306E02031C7B
:10090800862C872C882CEE010130F0007008ED074A
:100918008F2C2100111208002000DD005A08DF008A
:100928005908DE009F2C5E30C8005B08C9005D08CE
:1009380081310F21843120005E0884005F08850022
:100948001200031DA82CA92C972CD901DA01080044
:100958003B00BC01BD014030BE00BF01C001B20177
:10096800B1010330B400E830B3009C30B6003F302A
:10097800B500B8010330B700BA01B9018030BB0037
:1009880008007C08A83E860087012300190881001A
:100998000130F0007008FC0708307C02031CD52CDD
:1009A800D62CD72CFC010130F00070082000EB0792
:1009B800080083317B2384318431FB2484318531E1
:1009C800472584318431AC24843183313E238431FA
:1009D800080062302000E4006108DA006008D900ED
:1009E8006430DB000030843190248431080070309A
:1009F80021009B0080309C009A019D011C1F052D41
:100A0800062D022D08007408F2007308F1008531E4
:100A18003C258531853153258531080064008001E6
:100A28000131890B132D0034F3007308843122241B
:100A38008531080072082100C5007108C40008004B
:100A480072082100C3007108C20008007208210062
:100A5800BF007108BE00080072082100C1007108BB
:100A6800C000080072082100BD007108BC00080021
:100A780072083B00B4007108B30008000D34253437
:100A880075340A3400341630210099000800230018
:100A98001D121D1608008431C524853108003B004D
:060AA800BF170800080062
:020000040001F9
:08000000FF3FFF3FFF3FFF3F00
:04000E00E43FFF1FAD
:00000001FF
